:100000000C9436000C945E000C945E000C945E0020
:100010000C945E000C945E000C945E000C945E00E8
:100020000C945E000C945E000C945E000C945E00D8
:100030000C945E000C945E000C945E000C945E00C8
:100040000C9431050C945E000C9405060C945E0033
:100050000C945E000C945E000C945E000C945E00A8
:100060000C94AF020C945E00A801BE0611241FBEC2
:10007000CFEFD4E0DEBFCDBF11E0A0E0B1E0E2ED14
:10008000FEE002C005900D92AC30B107D9F711E047
:10009000ACE0B1E001C01D92AE3DB107E1F710E068
:1000A000CCE6D0E004C02297FE010E946307C83668
:1000B000D107C9F70E942A050C9467070C94000029
:1000C0000F931F93CF93DF93689F8001699F100D5B
:1000D000789F100D1124C8010E947C00EC0100974C
:1000E00029F060E070E0A8010E947E01CE01DF915E
:1000F000CF911F910F910895CF93DF93BC01823070
:10010000910510F462E070E0A091DC01B091DD0196
:10011000ED01E0E0F0E040E050E021C0888199810D
:100120008617970769F48A819B81309719F093832A
:10013000828304C09093DD018093DC01FE0134C012
:100140006817790738F44115510519F08417950798
:1001500008F4AC01FE018A819B819C01E901209792
:10016000E9F641155105A9F1CA01861B970B0497C1
:1001700008F4BA01E0E0F0E02AC08D919C9111975B
:1001800084179507F9F46417750781F412968D9119
:100190009C911397309719F09383828304C09093B6
:1001A000DD018093DC01FD0132964CC0CA01861B43
:1001B000970BFD01E80FF91F6193719302978D93DF
:1001C0009C9340C0FD01828193819C01D9011097CD
:1001D000A1F68091DA019091DB01892B41F48091A5
:1001E0000201909103019093DB018093DA01409129
:1001F0000401509105014115510541F44DB75EB719
:100200008091000190910101481B590B2091DA0166
:100210003091DB01CA01821B930B8617970780F090
:10022000AB014E5F5F4F8417950750F0420F531F8D
:100230005093DB014093DA01F9016193719302C09D
:10024000E0E0F0E0CF01DF91CF910895CF93DF930D
:10025000009709F450C0EC0122971B821A82A091EA
:10026000DC01B091DD01109709F140E050E0AC17DE
:10027000BD0708F1BB83AA83FE0121913191E20FF2
:10028000F31FAE17BF0779F48D919C911197280F3A
:10029000391F2E5F3F4F3983288312968D919C9191
:1002A00013979B838A834115510571F4D093DD0127
:1002B000C093DC0120C012968D919C911397AD01E3
:1002C000009711F0DC01D3CFFA01D383C2832191CF
:1002D0003191E20FF31FCE17DF0769F4888199810E
:1002E000280F391F2E5F3F4FFA01318320838A8107
:1002F0009B8193838283DF91CF910895DC0101C0BC
:100300006D9341505040E0F7089581E080931501CE
:1003100060931001109213011092140108958091BE
:100320000F0190910E01891B089590910E0180910B
:100330000F01981710F080E00895E0910C01F09102
:100340000D01E90FF11D80819F5F90930E010895CB
:100350000895DF93CF930F92CDB7DEB76983809175
:1003600015018823A9F0809114018032B0F48091A6
:100370001301E0911101F0911201E80FF11D60836A
:10038000809113018F5F809313018093140105C046
:10039000CE01019661E00E9492020F90CF91DF9111
:1003A00008950E94A90108956091110170911201B0
:1003B000809110014091140121E00E944D021092A1
:1003C000130110921401109215010895862F609167
:1003D0000C0170910D01413208F040E20E941702B9
:1003E00010920E0180930F0108950E94E601089576
:1003F00080E290E061E070E00E94600080930C0178
:1004000090930D0110920E0110920F0180E290E086
:1004100061E070E00E9460008093110190931201EE
:1004200010921301109214010E9431040895982F24
:10043000413210F040E02FC0809117018823E1F78E
:1004400081E0809317018FEF8093280110921F01A4
:1004500040932001990F91609093180185EE80934D
:10046000BC00809117018130E1F380911F01841756
:1004700010F440911F01A0911D01B0911E0120E0D8
:1004800030E007C0FB01E20FF31F8D9180832F5FE7
:100490003F4F2417B8F3842F08951F93582F122F1E
:1004A000413210F081E03CC0809117018823E1F7D0
:1004B00082E0809317018FEF8093280110921F0133
:1004C00040932001A0911D01B0911E01FB0102C0CB
:1004D00081918D938E2F861B8417D0F3852F90E00A
:1004E000880F991F8093180185EE8093BC0011231B
:1004F00021F0809117018230E1F3809128018F3F34
:1005000011F480E00DC080912801803211F482E066
:1005100007C080912801803311F084E001C083E09E
:100520001F910895482F613210F081E00895809165
:100530001701843011F082E0089560932401A091A6
:100540002101B0912201842F9C01F90102C0819107
:100550008D938E2F841B8617D0F380E008951F9211
:100560000F920FB60F9211242F933F934F935F93E7
:100570006F937F938F939F93AF93BF93EF93FF936B
:100580008091B90090E0887F90708036910509F4E1
:10059000E2C081369105CCF58832910509F47BC023
:1005A00089329105B4F48031910509F46FC081312D
:1005B00091053CF4009709F438C1089709F040C14F
:1005C00065C08831910509F466C0809709F038C18B
:1005D0007FC08034910509F4A3C08134910544F4AF
:1005E0008033910509F47FC0C89709F029C186C0FE
:1005F0008035910509F486C08835910509F495C0C8
:100600008834910509F01CC19EC08839910509F410
:1006100004C189399105ECF48837910509F49BC030
:10062000893791054CF48836910509F494C08037D8
:10063000910509F005C18FC08838910509F4EDC016
:100640008039910509F48DC08038910509F0F8C012
:1006500088C0803B910509F4B2C0813B91054CF400
:10066000803A910509F491C0883A910509F0E8C0F3
:10067000A6C0803C910509F4D4C0883C910509F4DA
:10068000D0C0883B910509F0DBC0B1C08091180152
:100690008093BB00C0C090911F01809120019817EA
:1006A00078F490911F01E0911D01F0911E01E90F76
:1006B000F11D80818093BB009F5F90931F01ABC0B1
:1006C00085ED8093BC008091BC0084FDFCCFB6C05A
:1006D00080E28093280185ED8093BC008091BC006E
:1006E00084FDFCCFABC080E38093280185ED80932F
:1006F000BC008091BC0084FDFCCFA0C088E3809347
:1007000028018FC080911F019091BB00E0911D01D5
:10071000F0911E01E80FF11D90838F5F80931F0100
:1007200090911F018091200174C080911F019091D0
:10073000BB00E0911D01F0911E01E80FF11D9083B7
:100740008F5F80931F0185ED8093BC008091BC007A
:1007500084FDFCCF73C083E08093170110922701C2
:100760005AC080912701803208F057C0809127013C
:100770009091BB00E0912501F0912601E80FF11D59
:1007800090838F5F8093270146C08091270180323C
:1007900048F480912701E0912501F0912601E80FAE
:1007A000F11D108260912701E0911B01F0911C0165
:1007B000809125019091260170E0099532C084E076
:1007C000809317011092230110922401E0911901E6
:1007D000F0911A01099580912401882341F481E068
:1007E00080932401E0912101F091220110829091E7
:1007F0002301E0912101F0912201E90FF11D808197
:100800008093BB009F5F909323019091230180917F
:100810002401981710F485EC01C085E88093BC0092
:100820000FC085EC8093BC0009C01092280185EDB3
:100830008093BC008091BC0084FDFCCF1092170116
:10084000FF91EF91BF91AF919F918F917F916F91A8
:100850005F914F913F912F910F900FBE0F901F907E
:10086000189510921701449A459AE9EBF0E08081BF
:100870008E7F808380818D7F808388E48093B80021
:1008800085E48093BC0080E290E061E070E00E942B
:10089000600080931D0190931E0180E290E061E072
:1008A00070E00E946000809321019093220180E219
:1008B00090E061E070E00E946000809325019093D9
:1008C000260108951F93CF93DF9380912901909182
:1008D0002A01853691050CF47BC010922A011092F2
:1008E000290186E191E062E570E046E050E00E9477
:1008F000F501C2E3D1E017E107C086E191E00E9473
:1009000095018127895E899386E191E00E948F019C
:10091000882399F786E191E062E570E00E94850105
:1009200086E191E060E070E00E94D10186E191E013
:100930000E94D4016091340160932B0180913501B4
:1009400080932C018091360180932D0120913701F5
:1009500030E041E050E0C901842795278170809301
:100960002E013695279524273527217020932F01B6
:100970008091320180933001809133018093310165
:1009800088EC91E00E94F50688EC91E060912C01E2
:100990000E94F50688EC91E060912D010E94F50619
:1009A00088EC91E060912E010E94F50688EC91E0C0
:1009B00060912F010E94F50688EC91E06091300172
:1009C0000E94F50688EC91E0609131010E94F506E5
:1009D0008091290190912A01019690932A01809398
:1009E000290161E070E080E090E00E94A105DF91C4
:1009F000CF911F9108950F931F9388EC91E040E0F1
:100A00005BE460E070E00E94420687B18C6087B9C9
:100A10004298439A64E670E080E090E00E94A1056D
:100A200006E111E0C8010E94F801C80162E570E02A
:100A30000E948501C80160E470E00E94D101C801F4
:100A400060E070E00E94D101C8010E94D4011F91B2
:100A50000F9108950E94CB050E94FB040E9462043E
:100A6000FDCF1F920F920FB60F9211242F938F93E9
:100A70009F93AF93BF938091380190913901A091DA
:100A80003A01B0913B010196A11DB11D809338013F
:100A900090933901A0933A01B0933B0180913C01BE
:100AA00090913D01A0913E01B0913F018050904C4A
:100AB000AF4FBF4F80933C0190933D01A0933E0107
:100AC000B0933F0127C080913C0190913D01A091DE
:100AD0003E01B0913F0180589E43A040B0408093BA
:100AE0003C0190933D01A0933E01B0933F01809162
:100AF000400190914101A0914201B09143010196C2
:100B0000A11DB11D8093400190934101A09342012A
:100B1000B093430180913C0190913D01A0913E0131
:100B2000B0913F0181589E43A040B04060F6BF9114
:100B3000AF919F918F912F910F900FBE0F901F90AB
:100B40001895EF92FF920F931F937B018C018FB743
:100B5000F89440914001509141016091420170919F
:100B600043018FBF2FB7F8948091400190914101CC
:100B7000A0914201B09143012FBF841B950BA60B9E
:100B8000B70BE816F9060A071B0760F71F910F91CC
:100B9000FF90EF900895789484B5826084BD84B509
:100BA000816084BD85B5826085BD85B5816085BD68
:100BB000EEE6F0E0808181608083E1E8F0E0808112
:100BC00082608083808181608083E0E8F0E08081C2
:100BD00081608083E1EBF0E0808184608083E0EBE2
:100BE000F0E0808181608083EAE7F0E080818460CA
:100BF0008083808182608083808181608083808126
:100C0000806880831092C10008951F920F920FB6E2
:100C10000F9211242F933F934F935F936F937F9382
:100C20008F939F93AF93BF93EF93FF934091C60031
:100C3000E091C401F091C501CF01019660E870E038
:100C40000E94FD069C018091C6019091C701281762
:100C5000390739F0EC5BFE4F40833093C501209398
:100C6000C401FF91EF91BF91AF919F918F917F91BF
:100C70006F915F914F913F912F910F900FBE0F9009
:100C80001F901895AF92BF92CF92DF92EF92FF9292
:100C90000F931F93CF93DF936C017A018B01DC01DB
:100CA0001496AD90BC901597CB01BA0122E030E0CC
:100CB00040E050E00E943207205C3D4B404F5F4FC8
:100CC000CA01B901A80197010E943207C901DA01DE
:100CD0000197A109B109292F3A2F4B2F552747FD1D
:100CE0005A950196A11DB11DE5012883E601EE810B
:100CF000FF8181508083EA85FB85208141E050E0BF
:100D0000CA010E8402C0880F991F0A94E2F7282BAB
:100D10002083EA85FB852081CA010F8402C0880FE9
:100D2000991F0A94E2F7282B2083EA85FB858081AE
:100D3000088802C0440F551F0A94E2F7842B808371
:100D4000DF91CF911F910F91FF90EF90DF90CF90A7
:100D5000BF90AF900895FC01A085B18521898C9149
:100D600090E0022E02C0959587950A94E2F780FFE5
:100D7000F6CF0484F585E02D608308958AE091E044
:100D80009093C9018093C80184E491E09093CB01D2
:100D90008093CA0185EC90E09093CD018093CC01C3
:100DA00084EC90E09093CF018093CE0180EC90E0B2
:100DB0009093D1018093D00181EC90E09093D30186
:100DC0008093D20186EC90E09093D5018093D4017A
:100DD00084E08093D60183E08093D70187E08093FD
:100DE000D80185E08093D9010895DC01ED91FC9153
:100DF0000190F081E02D0995089597FB092E0726B3
:100E00000AD077FD04D049D006D000201AF470959E
:100E100061957F4F0895F6F7909581959F4F0895BE
:100E2000A1E21A2EAA1BBB1BFD010DC0AA1FBB1FEE
:100E3000EE1FFF1FA217B307E407F50720F0A21B60
:100E4000B30BE40BF50B661F771F881F991F1A94CD
:100E500069F760957095809590959B01AC01BD01F7
:100E6000CF01089597FB092E05260ED057FD04D01B
:100E7000D7DF0AD0001C38F4509540953095219565
:100E80003F4F4F4F5F4F0895F6F7909580957095BF
:100E900061957F4F8F4F9F4F0895AA1BBB1B51E158
:100EA00007C0AA1FBB1FA617B70710F0A61BB70BDA
:100EB000881F991F5A95A9F780959095BC01CD017F
:100EC0000895EE0FFF1F0590F491E02D0994F8941A
:020ED000FFCF52
:0C0ED2002000DE01000000000000AB0664
:00000001FF
